:0801B800FEFDFBF7EFDFBF7F46
:0401C0000210000029
:1001850078087C007D007BFF7A0179B87E007F08C6
:100195001200D320B1FDE511640845107004F51077
:1001A500F5110511E51170020510142408F8E6F59E
:0301B500A080E047
:030000000200F902
:0C00F900787FE4F6D8FD7581110201400B
:10000300E709F608DFFA8046E709F208DFFA803EDF
:1000130088828C83E709F0A3DFFA8032E309F608CC
:10002300DFFA8078E309F208DFFA807088828C8334
:10003300E309F0A3DFFA806489828A83E0A3F608E8
:10004300DFFA805889828A83E0A3F208DFFA804CC2
:1000530080D280FA80C680D4806980F28033801099
:1000630080A680EA809A80A880DA80E280CA803302
:1000730089828A83ECFAE493A3C8C582C8CCC5837A
:10008300CCF0A3C8C582C8CCC583CCDFE9DEE7804A
:100093000D89828A83E493A3F608DFF9ECFAA9F0C9
:1000A300EDFB2289828A83ECFAE0A3C8C582C8CC1F
:1000B300C583CCF0A3C8C582C8CCC583CCDFEADE38
:1000C300E880DB89828A83E493A3F208DFF980CC9A
:1000D30088F0EF60010E4E60C388F0ED2402B40493
:1000E3000050B9F582EB2402B4040050AF2323453A
:0600F3008223900053730C
:10010500020185E493A3F8E493A34003F68001F28A
:1001150008DFF48029E493A3F85407240CC8C333FB
:10012500C4540F4420C8834004F456800146F6DFCA
:10013500E4800B01020408102040809001C0E47E99
:10014500019360BCA3FF543F30E509541FFEE493BF
:10015500A360010ECF54C025E060A840B8E493A386
:10016500FAE493A3F8E493A3C8C582C8CAC583CAB1
:10017500F0A3C8C582C8CAC583CADFE9DEE780BE69
:0101C400003A
:00000001FF
