:0E010A000C0848656C6C6F20576F726C6400B7
:1000EF001200D1E4F51474082514F8E6FF12012567
:0B00FF000514E514C3941040ED80FED2
:10008F00C2A58B807F017E001200B8D2A77F057EAC
:10009F00001200B8C2A7EBC454F0F5807F017E00B8
:0900AF001200B8D2A77F057E0003
:1000B800D3EF9400EE9400400F7DC77C01DCFEDD99
:0800C800FAEF1F70EB1E80E847
:0100D000220D
:0C011900AB07C2A7C2A612008FC2A7222B
:0C012500AB07C2A7D2A612008FC2A7220F
:1000D1007F321201197F281201197F0C1201197F39
:0E00E100061201197F011201197F8002011918
:03000000020003F8
:0C000300787FE4F6D8FD75811402004AF5
:10000F000200EFE493A3F8E493A34003F68001F218
:10001F0008DFF48029E493A3F85407240CC8C333F2
:10002F00C4540F4420C8834004F456800146F6DFC1
:10003F00E4800B010204081020408090010AE47E46
:10004F00019360BCA3FF543F30E509541FFEE493B6
:10005F00A360010ECF54C025E060A840B8E493A37D
:10006F00FAE493A3F8E493A3C8C582C8CAC583CAA8
:10007F00F0A3C8C582C8CAC583CADFE9DEE780BE60
:0101180000E6
:00000001FF
