:1000AA003F065B4F666D7D077F6F777C395E79719E
:0100BA000045
:10009600EF4E600F7D027CEFDCFEDDFCEF1F70F0A3
:0300A6001E80EDCC
:0100A9002234
:10000300EF14B40800505490001875F003A4C5838E
:1000130025F0C58373020030020034020038020069
:100023003C020040020048020050020058C2A48073
:100033000EC2A48012C2A48016C2A4801AD2A4C283
:10004300A3C2A28016D2A4C2A3D2A2800ED2A4D2EB
:10005300A3C2A28006D2A4D2A3D2A274AA2DF582EF
:0A00630074003CF583E493F580225D
:10006D00E4FBFAEB04FF0509E509AC08700205088D
:10007D0014FD1200037F647E001200960BBB00017D
:09008D000AEB64084A70DC80D71C
:030000000200BB40
:0C00BB00787FE4F6D8FD75810902006D25
:00000001FF
